:100000000C9465000C9482000C9482000C94820085
:100010000C9482000C9482000C9482000C94820058
:100020000C9482000C9482000C9482000C94820048
:100030000C9482000C9482000C9482000C94820038
:100040000C9482000C9482000C9482000C94820028
:100050000C9482000C9499000C9482000C94820001
:100060000C9482000C9482000C9482000C94820008
:100070000C9482000C9482000C9482000C948200F8
:100080000C9482000C9482000C9482000C948200E8
:100090000C9482000C9482000C9482000C948200D8
:1000A0000C9482000C9482000C94820005A84CCD24
:1000B000B2D44EB93836A9020C50B9918688083CA2
:1000C000A6AAAA2ABE000000803F11241FBECFEFBF
:1000D000DAE0DEBFCDBF13E0A0E0B1E0E4E9FBE190
:1000E00002C005900D92A036B107D9F725E0A0E631
:1000F000B3E001C01D92AA35B207E1F70E945B0A86
:100100000C94C80D0C9400008CE084B915B88FE4F1
:100110000C94580784B5826084BD85B5856085BD23
:10012000EEE6F0E08081826080838DE487BD789484
:1001300008951F920F920FB60F9211248F939F93E1
:100140008091600390916103019690936103809385
:10015000600380916003909161038436910524F0DF
:1001600010926103109260039F918F910F900FBEC8
:100170000F901F9018950F931F93CF93DF93EC016F
:100180008B01CA010E941A0D0E94150DB8016C1B4B
:100190007D0B0E94660A8C0F9D1FDF91CF911F91EE
:1001A0000F910895CF93DF93C0E041E066E08C2F7C
:1001B0000E94D40740E065E08C2F0E94D40741E004
:1001C00064E08C2F0E94D40740E063E08C2F0E94F3
:1001D000D40741E062E08C2F0E94D40740E061E048
:1001E0008C2F0E94D407D1E0DC0F41E066E08D2F18
:1001F0000E94D40741E065E08D2F0E94D40740E0C3
:1002000064E08D2F0E94D40741E063E08D2F0E94AF
:10021000D40740E060E08D2F0E94D40741E061E008
:100220008D2F0E94D407CE5FC43509F0BECFDF9179
:10023000CF910895CF93DF93EC0183309105CCF1FA
:1002400041E068E086E40E94D40741E067E086E48C
:100250000E94D40741E068E087E40E94D40741E0AF
:1002600067E087E40E94D40741E068E088E40E94E8
:10027000D40741E067E088E40E94D40741E069E0E8
:1002800088E40E94D40741E068E089E40E94D40732
:1002900041E067E089E40E94D40741E068E08AE435
:1002A0000E94D40741E067E08AE4DF91CF910C948B
:1002B000D40741E068E08AE00E94D40741E067E0AB
:1002C0008AE00E94D40741E068E08BE00E94D407F6
:1002D00041E067E08BE00E94D40741E069E08CE0F8
:1002E0000E94D40741E068E08CE00E94D40741E01E
:1002F00067E08CE00E94D40741E068E08DE00E9456
:10030000D40741E067E08DE00E94D40741E068E057
:100310008EE00E94D40741E067E08EE00E94D4079F
:10032000229709F48DCFDF91CF910895CF93DF937A
:10033000EC010E941B080E94D20081E090E00E9424
:100340001A010E94080862E08FE10E94C807CE01EE
:100350000E94BC072FEF89E698E121508040904031
:10036000E1F700C00000DF91CF9108950F931F9334
:10037000CF93DF9300D0CDB7DEB78C0160E080E093
:100380000E94C8074AE050E0BE016F5F7F4FC8017E
:100390000E94250D0E941B080E94D20082E090E07E
:1003A0000E941A01C8010E9461080E94080884EE98
:1003B00092E00E94BC07CE0101960E94BC078CEE21
:1003C00092E00E94BC070F900F90DF91CF911F9198
:1003D0000F9108950F931F93CF93DF9300D01F9237
:1003E000CDB7DEB78C0161E080E00E94C80780EFE6
:1003F00092E00E94BC074AE050E0BE016F5F7F4F71
:10040000C8010E94250DCE0101960E94BC0785E21D
:100410000E9496070F900F900F90DF91CF911F9140
:100420000F910895CF93DF930E941B080E94D20082
:1004300082E090E00E941A010E9408088AE090E0A1
:100440000E94B601CAE0D0E0189B1AC02FEF81EEDF
:1004500094E0215080409040E1F700C00000CC348F
:10046000D1052CF42596CE010E94B60109C0C035F5
:10047000D10531F48AE090E00E94B601CAE0D0E0F4
:10048000199BE2CF2FEF81EE94E021508040904005
:10049000E1F700C00000CE01DF91CF9108950F93E6
:1004A0001F93CF93DF938C010E941B0882E090E0A2
:1004B0000E941A010E94D2000E940808C8010E94EE
:1004C000B6018AE090E00E94EA012FEF80E792E017
:1004D000215080409040E1F700C00000CAE0D0E029
:1004E000189B34C02FEF81EE94E021508040904063
:1004F000E1F700C00000CB35D10594F42A960E94A4
:100500001B080E94D20082E090E00E941A010E9423
:100510000808C8010E94B601CE010E94EA0116C077
:10052000C436D10599F40E941B080E94D20082E0D3
:1005300090E00E941A010E940808C8010E94B601BA
:100540008AE090E00E94EA01CAE0D0E0199BC8CF9F
:100550002FEF80E792E0215080409040E1F700C00B
:100560000000CE01DF91CF911F910F9108952F923E
:100570003F924F925F926F927F928F929F92AF9233
:10058000BF92CF92DF92EF92FF920F931F93CF9380
:10059000DF93CDB7DEB72B970FB6F894DEBF0FBE53
:1005A000CDBF8C01882777FD8095982F0E942D0B59
:1005B00025E33AEF4EE85CE30E941A0C4B015C0124
:1005C000980117FF02C02F5F3F4FB90175956795DE
:1005D000882777FD8095982F0E942D0B6B017C0159
:1005E000C501B4010E947D0C9B01AC01C701B6019D
:1005F0000E941A0C6A837B838C839D83C501B4019E
:100600000E94F70A9B01AC01C701B6010E941A0CB7
:100610006E837F838887998722242394312C812CB1
:10062000912C20E4A22E21E4B22EC12CD12C30E159
:10063000E32E31E4F32E29E029830CE089E08B8757
:100640009CE09A87B101882777FD8095982F0E94BA
:100650002D0B2DEC3CEC4CE45DE30E941A0C2B01BD
:100660003C0120E030E048E852E4C501B4010E94BA
:10067000160C87FD1FC020E030E046E952E4C501BA
:10068000B4010E94F30A1816ACF020E030E040EE0E
:1006900050E4C701B6010E94160C87FD0BC020E094
:1006A00030E040E151E4C701B6010E94F30A181698
:1006B0000CF0B0C020E030E046EA52E4C501B401DD
:1006C0000E94160C18160CF4A8C020E030E040EC94
:1006D00050E4C701B6010E94F30A18165CF020E04E
:1006E00030E040E85FE3C701B6010E94160C18161F
:1006F0000CF493C020E030E040E452E4C701B601BE
:100700000E94F30A87FF17C00E941B080E94D200B4
:1007100082E090E00E941A01E9816E2F70E0802F44
:1007200090E00E944208FB856F2F70E02A85822F9F
:1007300090E00E94420820E030E040E452E4C7012B
:10074000B6010E94160C181654F40E941B080E9451
:10075000D20082E090E00E941A010E9408088FE413
:1007600093EC0197F1F700C00000A3019201C301CF
:10077000B2010E941A0C4B015C01A30192016A8133
:100780007B818C819D810E941A0C6B017C0123E38B
:1007900033E34BE950ECC501B4010E941A0C9B01F4
:1007A000AC01C701B6010E948F0A20E030E040E1B1
:1007B00051E40E948F0A6B017C010E94FF0A162FF0
:1007C000A30192016E817F81888599850E941A0C10
:1007D0002B013C0120E030E0A901C501B4010E94D9
:1007E0001A0C9B01AC01C301B2010E948F0A20E0E8
:1007F00030E040E451E40E948F0A4B015C010E940A
:10080000FF0A9FEF291A390AEB85E9830A851B87BE
:100810006A8718CF81E090E002C080E090E02B96DC
:100820000FB6F894DEBF0FBECDBFDF91CF911F9101
:100830000F91FF90EF90DF90CF90BF90AF909F907F
:100840008F907F906F905F904F903F902F90089582
:100850002F923F924F925F926F927F928F929F92D0
:10086000AF92BF92CF92DF92EF92FF920F931F93BE
:10087000CF93DF93CDB7DEB72F970FB6F894DEBFD7
:100880000FBECDBF40916003509161036AE070E0FC
:1008900081E090E00E94BB00FAE0FF2EF89E80010C
:1008A000F99E100D1124409160035091610368E09E
:1008B00070E081E090E00E94BB00F89E6001F99E2C
:1008C000D00C11240E941B080E94D20082E090E00C
:1008D0000E941A010E94080862E086E00E94C80790
:1008E00088EF92E00E94BC072FEF83ED90E3215048
:1008F00080409040E1F700C000004AE050E0BE01B7
:100900006C5F7F4FC6010E94250D4AE050E0BE019A
:100910006F5F7F4FC8010E94250DAAE0EA2EF12CDF
:10092000CE14DF04D4F10E941B0882E090E00E9404
:100930001A010E94D200C7010E9457090E940808AC
:1009400060E087E00E94C80784E093E00E94BC0753
:10095000CE0104960E94BC078AE093E00E94BC0787
:1009600061E080E00E94C8078FE093E00E94BC072E
:10097000CE0101960E94BC0782E193E00E94BC0771
:100980002FEF82E597E0215080409040E1F700C0D2
:10099000000025E0E20EF11CC3CF8FEF93ED20E3C2
:1009A000815090402040E1F700C00000B601882748
:1009B00077FD8095982F0E942D0B25E33AEF4EE8A6
:1009C0005CE30E941A0C4B015C0117FF02C00F5F31
:1009D0001F4FB80175956795882777FD8095982FEB
:1009E0000E942D0B6B017C01C501B4010E947D0C9E
:1009F0009B01AC01C701B6010E941A0C6F83788776
:100A000089879A87C501B4010E94F70A9B01AC014E
:100A1000C701B6010E941A0C6B877C878D879E8761
:100A200000E0812C912C5CE8A52E52E4B52EC12C5F
:100A3000D12C60E1E62E61E4F62E89E08E831CE085
:100A400079E0372EE6E42E2E602F70E080E090E013
:100A50000E942D0B2DEC3CEC4CE45DE30E941A0C43
:100A60002B013C0120E030E040E051E4C501B4013D
:100A70000E94160C87FD1FC020E030E040E751E4E3
:100A8000C501B4010E94F30A1816ACF020E030E072
:100A900040EE50E4C701B6010E94160C87FD0BC062
:100AA00020E030E040E151E4C701B6010E94F30AC2
:100AB00018160CF0AAC020E030E0A901C501B4016D
:100AC0000E94F30A87FDA4C020E030E040EC50E42F
:100AD000C701B6010E94F30A18165CF020E030E06E
:100AE00040E85FE3C701B6010E94160C18160CF42B
:100AF0008FC020E030E040E452E4C701B6010E941C
:100B0000F30A87FF15C00E941B080E94D20082E0F2
:100B100090E00E941A019E81692F70E0812F90E081
:100B20000E944208632D70E0822D90E00E944208EE
:100B300020E030E040E452E4C701B6010E94160C08
:100B4000181654F40E941B080E94D20082E090E024
:100B50000E941A010E9408088FE493EC0197F1F7B4
:100B600000C00000A3019201C301B2010E941A0C4F
:100B70004B015C01A30192016F81788589859A857B
:100B80000E941A0C6B017C0123E333E34BE950EC28
:100B9000C501B4010E941A0C9B01AC01C701B6014A
:100BA0000E948F0A20E030E040E151E40E948F0A69
:100BB0006B017C010E94FF0A6F87A30192015058CC
:100BC0006B857C858D859E850E941A0C2B013C01CE
:100BD00020E030E0A901C501B4010E941A0C9B017C
:100BE000AC01C301B2010E948F0A20E030E040E96D
:100BF00052E40E948F0A4B015C010E94FF0A0F5FC2
:100C00003E82122D3F84262E1FCF82E090E002C04C
:100C100080E090E02F960FB6F894DEBF0FBECDBFF8
:100C2000DF91CF911F910F91FF90EF90DF90CF90C8
:100C3000BF90AF909F908F907F906F905F904F90FC
:100C40003F902F9008950E9488070E941B0881E022
:100C500090E00E941A010E94D2000E94080861E000
:100C60008EE00E94C8078BE193E00E94BC0762E01F
:100C700081E10E94C80784E293E00E94BC0763E020
:100C80008EE00E94C8078CE293E00E94BC0718998E
:100C900002C0199BFCCF85E393E00E94960189E393
:100CA00093E00E9496018DE393E00C949601CF931C
:100CB000DF930E941202EC010E944F02BE010E94CB
:100CC000B702009701F50E9428040097E1F40E9402
:100CD0001B0882E090E00E941A010E94D2000E944C
:100CE000080862E089E00E94C80781E493E00E945E
:100CF000BC072FEF83ED90E3215080409040E1F757
:100D000000C00000D6CFDF91CF91089581309105CA
:100D1000E9F50E941B0881E090E00E941A010E9400
:100D2000D2000E94080862E08BE00E94C8078CE4B1
:100D300093E00E94BC0785B194E0892785B92FEF25
:100D400081EE94E0215080409040E1F700C0000027
:100D500085B194E0892785B985B198E0892785B95F
:100D60002FEF81EE94E0215080409040E1F700C0E9
:100D7000000085B194E0892785B985B198E089277D
:100D800085B961E08BE00E94C8073BC0029709F07B
:100D900067C00E941B080E94D20083E090E00E947E
:100DA0001A010E94080862E08BE00E94C80786E5ED
:100DB00093E00E94BC0785B194E0892785B92FEFA5
:100DC00081EE94E0215080409040E1F700C00000A7
:100DD00085B194E0892785B985B198E0892785B9DF
:100DE0002FEF81EE94E0215080409040E1F700C069
:100DF000000085B194E0892785B985B198E08927FD
:100E000085B92FEF81EE94E0215080409040E1F7CA
:100E100000C0000085B194E0892785B985B198E0CC
:100E2000892785B92FEF81EE94E0215080409040D2
:100E3000E1F700C0000085B194E0892785B985B14C
:100E400098E0892785B92FEF81EE94E0215080400A
:100E50009040E1F700C0000085B194E0892785B992
:100E60002FEF83ED90E3215080409040E1F700C0E8
:100E70000000089525B130E2839FC00111242F7D29
:100E8000282B25B95F9887E090E070E08F989B0150
:100E9000082E02C0359527950A94E2F720FF02C07C
:100EA0002E9A01C02E988F9A019780F75F9A089525
:100EB000CF93C82F579A249A259A269A879A2C98C6
:100EC0005F9A2C9A61E280E00E943A076C2F60687A
:100ED00080E00E943A0764E080E00E943A0764E103
:100EE00080E00E943A076CE080E00E943A0760E2EE
:100EF00080E00E943A076CE080E00E943A0760E4DC
:100F000080E00E943A0760E880E0CF910C943A07B5
:100F1000CF93DF93C9EFD1E060E081E00E943A0710
:100F200021972097C9F7DF91CF9108950F931F93D1
:100F3000CF93DF93082F60E081E00E943A0785E0BD
:100F4000089F800111240C5F1E4FC0E0D0E0F80123
:100F5000EC0FFD1FE05AF109608181E00E943A0721
:100F60002196C530D10599F760E081E0DF91CF91FE
:100F70001F910F910C943A07CF93DF93EC01899165
:100F8000882319F00E949607FACFDF91CF91089538
:100F9000CF93C82F606480E00E943A076C2F60688E
:100FA00080E0CF910C943A0720E3261B622F6770F4
:100FB00070E026952695269590E050E06115710524
:100FC00081F0FC0134E5239FE00DF11D1124EE5961
:100FD000FC4F61507109062E01C0440F0A94EAF7D4
:100FE00012C030E02150310964E5629FF001639F37
:100FF000F00D1124E80FF91FEE59FC4F5695542FB0
:101000004427579547958081842B808308950895C0
:10101000CF93DF9360E080E00E94C807C2E6D3E090
:10102000699181E00E943A0785E0CB35D807C1F786
:10103000DF91CF910895E2E6F3E0119285E0EB3580
:10104000F807D9F708951F93CF93DF93C82FD62FB2
:1010500040E00E94D40711E01C0F40E06D2F812F6B
:101060000E94D407DF5F40E06D2F8C2F0E94D407D1
:1010700040E06D2F812F0E94D407DF91CF911F9107
:101080000C9408081F93CF93DF93C82FD62F41E00D
:101090000E94D40711E01C0F41E06D2F812F0E94A8
:1010A000D407DF5F41E06D2F8C2F0E94D40741E011
:1010B0006D2F812F0E94D407DF91CF911F910C9447
:1010C00008082F923F924F925F926F927F928F9279
:1010D0009F92AF92BF92CF92DF92EF92FF920F93C7
:1010E0001F93CF93DF9300D000D0CDB7DEB7BC0104
:1010F000882777FD8095982F0E942D0B25E33AEFE6
:101100004EE85CE30E941A0C6B017C010E94F70A16
:1011100020E030E040E251E40E941A0C4B015C01F7
:10112000C701B6010E947D0C20E030E040E251E4AE
:101130000E941A0C6B017C0120E030E040E451E495
:10114000C501B4010E948F0A0E94FA0A662E20E0AF
:1011500030E040E151E4C701B6010E948F0A0E94CD
:10116000FA0A562EE62CFF24E7FCF094C7010C97F0
:1011700097FF03C0919581959109282E482E052D42
:10118000112707FD1095C801099797FF03C0919596
:1011900081959109C82E382E922C981A8CE08615CC
:1011A00014F431E001C03FEF99E0951514F451E0DB
:1011B00001C05FEFECE0F0E0FC83EB8399E0892E67
:1011C0002CE0722E8C2D992781950CF490955C0162
:1011D0008B819C81E816F90614F141E0682D872D7A
:1011E00039835A830E94D40739815A81761002C00C
:1011F0008514A9F0292D220F822F992787FD90951C
:10120000A816B90614F49318730E241514F4920C4E
:10121000850EEB81FC813196FC83EB83D9CFA12C29
:10122000B12CE82CFF24E7FCF094DD24C1940CF4ED
:10123000D094C5018E0D9F1D8017910704F541E0E4
:10124000682D872D39835A830E94D40739815A81AA
:10125000761002C0851499F0292D220F822F99272C
:1012600087FD9095C816D90614F49318730E2415AB
:1012700014F4920C850E9FEFA91AB90ADACF80E018
:101280000F900F900F900F90DF91CF911F910F91C2
:10129000FF90EF90DF90CF90BF90AF909F908F9096
:1012A0007F906F905F904F903F902F9008952F9276
:1012B0003F924F925F926F927F928F929F92AF92E6
:1012C000BF92CF92DF92EF92FF920F931F93CF9333
:1012D000DF9300D000D0CDB7DEB7BC01882777FD03
:1012E0008095982F0E942D0B25E33AEF4EE85CE3A2
:1012F0000E941A0C6B017C010E94F70A4B015C01F1
:10130000C701B6010E947D0C20E030E040E251E4CC
:101310000E941A0C6B017C0120E030E040E251E4B5
:10132000C501B4010E941A0C9B01AC0160E070E0A1
:10133000CB010E948E0A20E030E040E952E40E9496
:101340008F0A20E030E040E85FE30E948F0A0E94AD
:10135000FA0A662E20E030E040E151E4C701B60110
:101360000E948F0A0E94FA0A562EE62CFF24E7FC00
:10137000F094C7018854910997FF03C09195819516
:101380009109282E482E052D112707FD1095C8011B
:10139000099797FF03C0919581959109C82E382E22
:1013A000922C981A88E4861514F431E001C03FEFBE
:1013B00099E0951514F451E001C05FEFE8E4F0E026
:1013C000FC83EB8349E0842E68E4762E8C2D9927EC
:1013D00081950CF490955C018B819C818E159F0505
:1013E00014F141E0682D872D39835A830E94D40778
:1013F00039815A81761002C08514A9F0292D220F57
:10140000822F992787FD9095A816B90614F4931892
:10141000730E241514F4920C850EEB81FC81319728
:10142000FC83EB83D9CFA12CB12CE82CFF24E7FC63
:10143000F094DD24C1940CF4D094C5018E0D9F1D51
:101440008017910704F541E0682D872D39835A8371
:101450000E94D40739815A81761002C0851499F010
:10146000292D220F822F992787FD9095C816D9061E
:1014700014F49318730E241514F4920C850E9FEF38
:10148000A91AB90ADACF80E00F900F900F900F9051
:10149000DF91CF911F910F91FF90EF90DF90CF9050
:1014A000BF90AF909F908F907F906F905F904F9084
:1014B0003F902F9008950E9484000E948A000E940D
:1014C00023060E9457060E948606F9CF97FB072E37
:1014D00016F4009407D077FD09D00E947A0A07FC21
:1014E00005D03EF4909581959F4F08957095619534
:1014F0007F4F0895AA1BBB1B51E107C0AA1FBB1F4A
:10150000A617B70710F0A61BB70B881F991F5A958F
:10151000A9F780959095BC01CD0108955058BB273F
:10152000AA270ED038C101D130F006D120F031F415
:101530009F3F11F41EF4F6C00EF4E095E7FBECC0FB
:10154000E92F4BD180F3BA17620773078407950719
:1015500018F071F49EF563C10EF4E0950B2EBA2FCE
:10156000A02D0B01B90190010C01CA01A0011124A9
:10157000FF27591B99F0593F50F4503E68F11A1655
:10158000F040A22F232F342F4427585FF3CF4695E6
:1015900037952795A795F0405395C9F77EF41F1608
:1015A000BA0B620B730B840BBAF09150A1F0FF0FD2
:1015B000BB1F661F771F881FC2F70EC0BA0F621FBE
:1015C000731F841F48F4879577956795B795F795AE
:1015D0009E3F08F0B3CF9395880F08F09927EE0F40
:1015E00097958795089574D008F481E00895ACD05C
:1015F000E395E2C004D06894B11112C10895F5D00A
:1016000088F09F5790F0B92F9927B751A0F0D1F0EB
:10161000660F771F881F991F1AF0BA95C9F712C075
:10162000B13081F0FCD0B1E00895F9C0672F782F78
:101630008827B85F39F0B93FCCF3869577956795E1
:10164000B395D9F73EF490958095709561957F4F4D
:101650008F4F9F4F0895E89409C097FB3EF49095F3
:101660008095709561957F4F8F4F9F4F9923A9F07B
:10167000F92F96E9BB279395F6958795779567950A
:10168000B795F111F8CFFAF4BB0F11F460FF1BC04E
:101690006F5F7F4F8F4F9F4F16C0882311F096E9E1
:1016A00011C0772321F09EE8872F762F05C066238F
:1016B00071F096E8862F70E060E02AF09A95660F48
:1016C000771F881FDAF7880F9695879597F9089501
:1016D000990F0008550FAA0BE0E8FEEF1616170643
:1016E000E807F907C0F012161306E407F50798F0AB
:1016F000621B730B840B950B39F40A2661F0232BC4
:10170000242B252B21F408950A2609F4A140A6953F
:101710008FEF811D811D089597F99F6780E870E024
:1017200060E008959FEF80EC089500240A94161657
:10173000170618060906089500240A9412161306BF
:10174000140605060895EECF50D0E8F3E894E0E0E3
:10175000BB279F57F0F02AED3FE049EC06C0EE0FA3
:10176000BB0F661F771F881F28F0B23A6207730706
:10177000840728F0B25A620B730B840BE3959A9599
:1017800072F7803830F49A95BB0F661F771F881F59
:10179000D2F79048BAC0092E0394000C11F48823A4
:1017A00052F0BB0F40F4BF2B11F460FF04C06F5F19
:1017B0007F4F8F4F9F4F0895EF93E0FF06C0A2EA3F
:1017C0002AED3FE049EC5FEBBBDEE5DF0F900394D1
:1017D00001FC9058ECEAF0E0A4C057FD9058440F8B
:1017E000551F59F05F3F71F04795880F97FB991F80
:1017F00061F09F3F79F0879508951216130614063D
:10180000551FF2CF4695F1DF08C0161617061806C9
:10181000991FF1CF86957105610508940895E894A4
:10182000BB2766277727CB0197F9089551DF08F486
:101830008FEF08950BD0AFCF78DF28F07DDF18F061
:10184000952309F069CF6ECF1124EACFC6DFA0F34C
:10185000959FD1F3950F50E0551F629FF001729F45
:10186000BB27F00DB11D639FAA27F00DB11DAA1F64
:10187000649F6627B00DA11D661F829F2227B00DB1
:10188000A11D621F739FB00DA11D621F839FA00D3C
:10189000611D221F749F3327A00D611D231F849F8C
:1018A000600D211D822F762F6A2F11249F575040E3
:1018B0008AF0E1F088234AF0EE0FFF1FBB1F661F7E
:1018C000771F881F91505040A9F79E3F510570F037
:1018D00023CFA6CF5F3FECF3983EDCF38695779558
:1018E0006795B795F795E7959F5FC1F7FE2B880F32
:1018F000911D9695879597F908959F9325DF0F90F1
:1019000007FCEE5F59CF9F3F31F0915020F487954F
:1019100077956795B795880F911D9695879597F957
:1019200008959F938F937F936F93FF93EF939B0102
:10193000AC0180DFEF91FF9105D02F913F914F9146
:101940005F9178CFDF93CF931F930F93FF92EF9226
:10195000DF927B018C01689405C0DA2EEF0176DFFF
:10196000FE01E894A5912591359145915591AEF3ED
:10197000EF01E6DDFE019701A801DA9479F7DF9027
:10198000EF90FF900F911F91CF91DF9108958F926B
:101990009F92AF92BF92CF92DF92EF92FF92CF933E
:1019A000DF93EC01688179818A819B8161157105E2
:1019B0008105910521F464E279ED8BE597E02DE155
:1019C00033EF41E050E00E94650D49015A019B014F
:1019D000AC01A7EAB1E40E94840D6B017C01ACEE7E
:1019E000B4EFA50194010E94920DC60ED71EE81E09
:1019F000F91EF7FE06C081E0C81AD108E10880E8A8
:101A0000F80AC882D982EA82FB82C6019F77DF91F9
:101A1000CF91FF90EF90DF90CF90BF90AF909F90CD
:101A20008F9008950E94C70C089580E091E00E9475
:101A3000C70C0895A0E0B0E08093000190930101ED
:101A4000A0930201B093030108954532510520F49B
:101A5000423010F00C94300DFB011082CB01089540
:101A6000BB274A3031F4992322F4BDE29095819549
:101A70009F4F0C943C0DBB27FB015527AA27880FCD
:101A8000991FAA1FA41710F0A41B83955051B9F7F2
:101A9000A05DAA3308F0A95DA193009779F7B11171
:101AA000B1931192CB010C94550DDC01FC01672F11
:101AB00071917723E1F7329704C07C916D93708325
:101AC0006291AE17BF07C8F30895052E97FB1EF469
:101AD00000940E947C0D57FD07D00E94970D07FCD3
:101AE00003D04EF40C947C0D509540953095219583
:101AF0003F4F4F4F5F4F089590958095709561953A
:101B00007F4F8F4F9F4F08950E94B90DA59F900D55
:101B1000B49F900DA49F800D911D11240895B7FFCF
:101B20000C94840D0E94840D821B930B0895A1E2F6
:101B30001A2EAA1BBB1BFD010DC0AA1FBB1FEE1F47
:101B4000FF1FA217B307E407F50720F0A21BB30B92
:101B5000E40BF50B661F771F881F991F1A9469F70E
:101B600060957095809590959B01AC01BD01CF016A
:101B70000895A29FB001B39FC001A39F700D811D66
:101B80001124911DB29F700D811D1124911D089586
:041B9000F894FFCFF7
:101B940001000000000000000000005F00000007DA
:101BA400000700147F147F14242A7F2A12231308A9
:101BB400646236495522500005030000001C22418E
:101BC400000041221C0014083E081408083E0808BE
:101BD4000050300000080808080800606000002079
:101BE400100804023E5149453E00427F40004261D4
:101BF4005149462141454B311814127F1027454560
:101C040045393C4A49493001710905033649494976
:101C140036064949291E00363600000056360000B3
:101C2400081422410014141414140041221408024C
:101C340001510906324979413E7E1111117E7F49D5
:101C44004949363E414141227F4141221C7F494955
:101C540049417F090909013E4149497A7F08080839
:101C64007F00417F41002040413F017F0814224111
:101C74007F404040407F020C027F7F0408107F3E7B
:101C84004141413E7F090909063E4151215E7F09D8
:101C9400192946464949493101017F01013F404024
:101CA400403F1F2040201F3F4038403F631408142A
:101CB4006307087008076151494543007F414100AB
:101CC40002040810200041417F0004020102044084
:101CD40040404040000102040020545454787F489E
:101CE4004444383844444420384444487F385454A5
:101CF4005418087E0901020C5252523E7F08040413
:101D04007800447D40002040443D007F102844007A
:101D140000417F40007C041804787C08040478386F
:101D2400444444387C14141408081414187C7C08A3
:101D34000404084854545420043F4440203C404088
:101D4400207C1C2040201C3C4030403C442810286F
:101D5400440C5050503C4464544C440008364100F8
:101D640000007F00000041360800100808100878C1
:101D740046414678414E474C453A20004445470089
:101D8400504F5745523A2000596F75204D6973736F
:101D9400656421002241494D20004445472200202A
:101DA40022002520504F574552220053636F72631F
:101DB400686564005472697374616E006E393231FF
:101DC40037313236002D332D002D322D002D312D9B
:101DD4000054727920416761696E2100596F752042
:101DE400576F6E212100596F75204C6F7365210068
:00000001FF
